{
  "contracts/MarketPlace.sol": {
    "MarketPlace": {
      "abi": [
        {
          "anonymous": false,
          "inputs": [
            {
              "indexed": true,
              "internalType": "uint256",
              "name": "itemId",
              "type": "uint256"
            },
            {
              "indexed": false,
              "internalType": "string",
              "name": "name",
              "type": "string"
            },
            {
              "indexed": false,
              "internalType": "uint256",
              "name": "price",
              "type": "uint256"
            },
            {
              "indexed": true,
              "internalType": "address",
              "name": "seller",
              "type": "address"
            }
          ],
          "name": "ItemListed",
          "type": "event"
        },
        {
          "anonymous": false,
          "inputs": [
            {
              "indexed": true,
              "internalType": "uint256",
              "name": "itemId",
              "type": "uint256"
            },
            {
              "indexed": true,
              "internalType": "address",
              "name": "buyer",
              "type": "address"
            },
            {
              "indexed": false,
              "internalType": "uint256",
              "name": "price",
              "type": "uint256"
            }
          ],
          "name": "ItemPurchased",
          "type": "event"
        },
        {
          "inputs": [
            {
              "internalType": "uint256",
              "name": "_itemId",
              "type": "uint256"
            }
          ],
          "name": "getItem",
          "outputs": [
            {
              "internalType": "string",
              "name": "name",
              "type": "string"
            },
            {
              "internalType": "uint256",
              "name": "price",
              "type": "uint256"
            },
            {
              "internalType": "address",
              "name": "seller",
              "type": "address"
            },
            {
              "internalType": "bool",
              "name": "isAvailable",
              "type": "bool"
            }
          ],
          "stateMutability": "view",
          "type": "function"
        },
        {
          "inputs": [],
          "name": "getItemCount",
          "outputs": [
            {
              "internalType": "uint256",
              "name": "",
              "type": "uint256"
            }
          ],
          "stateMutability": "view",
          "type": "function"
        },
        {
          "inputs": [
            {
              "internalType": "uint256",
              "name": "",
              "type": "uint256"
            }
          ],
          "name": "items",
          "outputs": [
            {
              "internalType": "string",
              "name": "name",
              "type": "string"
            },
            {
              "internalType": "uint256",
              "name": "price",
              "type": "uint256"
            },
            {
              "internalType": "address payable",
              "name": "seller",
              "type": "address"
            },
            {
              "internalType": "bool",
              "name": "isAvailable",
              "type": "bool"
            }
          ],
          "stateMutability": "view",
          "type": "function"
        },
        {
          "inputs": [
            {
              "internalType": "string",
              "name": "_name",
              "type": "string"
            },
            {
              "internalType": "uint256",
              "name": "_price",
              "type": "uint256"
            }
          ],
          "name": "listItem",
          "outputs": [],
          "stateMutability": "nonpayable",
          "type": "function"
        },
        {
          "inputs": [
            {
              "internalType": "uint256",
              "name": "_itemId",
              "type": "uint256"
            }
          ],
          "name": "purchaseItem",
          "outputs": [],
          "stateMutability": "payable",
          "type": "function"
        }
      ],
      "evm": {
        "bytecode": {
          "linkReferences": {},
          "object": "6080604052348015600f57600080fd5b506110428061001f6000396000f3fe60806040526004361061004a5760003560e01c80633129e7731461004f5780637749cf231461008f5780638511c937146100ba578063bfb231d2146100e3578063d38ea5bf14610123575b600080fd5b34801561005b57600080fd5b506100766004803603810190610071919061078e565b61013f565b60405161008694939291906108b6565b60405180910390f35b34801561009b57600080fd5b506100a461028d565b6040516100b19190610902565b60405180910390f35b3480156100c657600080fd5b506100e160048036038101906100dc9190610982565b610299565b005b3480156100ef57600080fd5b5061010a6004803603810190610105919061078e565b610477565b60405161011a9493929190610a03565b60405180910390f35b61013d6004803603810190610138919061078e565b61056c565b005b606060008060008080549050851061018c576040517f08c379a000000000000000000000000000000000000000000000000000000000815260040161018390610a9b565b60405180910390fd5b60008086815481106101a1576101a0610abb565b5b906000526020600020906003020190508060000181600101548260020160009054906101000a900473ffffffffffffffffffffffffffffffffffffffff168360020160149054906101000a900460ff168380546101fd90610b19565b80601f016020809104026020016040519081016040528092919081815260200182805461022990610b19565b80156102765780601f1061024b57610100808354040283529160200191610276565b820191906000526020600020905b81548152906001019060200180831161025957829003601f168201915b505050505093509450945094509450509193509193565b60008080549050905090565b600081116102dc576040517f08c379a00000000000000000000000000000000000000000000000000000000081526004016102d390610b96565b60405180910390fd5b6000604051806080016040528085858080601f016020809104026020016040519081016040528093929190818152602001838380828437600081840152601f19601f8201169050808301925050505050505081526020018381526020013373ffffffffffffffffffffffffffffffffffffffff168152602001600115158152509080600181540180825580915050600190039060005260206000209060030201600090919091909150600082015181600001908161039a9190610d91565b506020820151816001015560408201518160020160006101000a81548173ffffffffffffffffffffffffffffffffffffffff021916908373ffffffffffffffffffffffffffffffffffffffff16021790555060608201518160020160146101000a81548160ff02191690831515021790555050503373ffffffffffffffffffffffffffffffffffffffff1660016000805490506104379190610e92565b7f16244e47af8a7d2c923faa2cab44315c0514c7aa830682bbb9cc8f0d37ad754885858560405161046a93929190610f02565b60405180910390a3505050565b6000818154811061048757600080fd5b90600052602060002090600302016000915090508060000180546104aa90610b19565b80601f01602080910402602001604051908101604052809291908181526020018280546104d690610b19565b80156105235780601f106104f857610100808354040283529160200191610523565b820191906000526020600020905b81548152906001019060200180831161050657829003601f168201915b5050505050908060010154908060020160009054906101000a900473ffffffffffffffffffffffffffffffffffffffff16908060020160149054906101000a900460ff16905084565b60008054905081106105b3576040517f08c379a00000000000000000000000000000000000000000000000000000000081526004016105aa90610a9b565b60405180910390fd5b60008082815481106105c8576105c7610abb565b5b906000526020600020906003020190508060020160149054906101000a900460ff16610629576040517f08c379a000000000000000000000000000000000000000000000000000000000815260040161062090610f80565b60405180910390fd5b8060010154341461066f576040517f08c379a000000000000000000000000000000000000000000000000000000000815260040161066690610fec565b60405180910390fd5b60008160020160146101000a81548160ff0219169083151502179055508060020160009054906101000a900473ffffffffffffffffffffffffffffffffffffffff1673ffffffffffffffffffffffffffffffffffffffff166108fc349081150290604051600060405180830381858888f193505050501580156106f6573d6000803e3d6000fd5b503373ffffffffffffffffffffffffffffffffffffffff16827f78a0660bbda86d17037943644187f6f1f73f2f20a3240bf4cf4a56c2a96bcf8483600101546040516107429190610902565b60405180910390a35050565b600080fd5b600080fd5b6000819050919050565b61076b81610758565b811461077657600080fd5b50565b60008135905061078881610762565b92915050565b6000602082840312156107a4576107a361074e565b5b60006107b284828501610779565b91505092915050565b600081519050919050565b600082825260208201905092915050565b60005b838110156107f55780820151818401526020810190506107da565b60008484015250505050565b6000601f19601f8301169050919050565b600061081d826107bb565b61082781856107c6565b93506108378185602086016107d7565b61084081610801565b840191505092915050565b61085481610758565b82525050565b600073ffffffffffffffffffffffffffffffffffffffff82169050919050565b60006108858261085a565b9050919050565b6108958161087a565b82525050565b60008115159050919050565b6108b08161089b565b82525050565b600060808201905081810360008301526108d08187610812565b90506108df602083018661084b565b6108ec604083018561088c565b6108f960608301846108a7565b95945050505050565b6000602082019050610917600083018461084b565b92915050565b600080fd5b600080fd5b600080fd5b60008083601f8401126109425761094161091d565b5b8235905067ffffffffffffffff81111561095f5761095e610922565b5b60208301915083600182028301111561097b5761097a610927565b5b9250929050565b60008060006040848603121561099b5761099a61074e565b5b600084013567ffffffffffffffff8111156109b9576109b8610753565b5b6109c58682870161092c565b935093505060206109d886828701610779565b9150509250925092565b60006109ed8261085a565b9050919050565b6109fd816109e2565b82525050565b60006080820190508181036000830152610a1d8187610812565b9050610a2c602083018661084b565b610a3960408301856109f4565b610a4660608301846108a7565b95945050505050565b7f496e76616c6964206974656d2049440000000000000000000000000000000000600082015250565b6000610a85600f836107c6565b9150610a9082610a4f565b602082019050919050565b60006020820190508181036000830152610ab481610a78565b9050919050565b7f4e487b7100000000000000000000000000000000000000000000000000000000600052603260045260246000fd5b7f4e487b7100000000000000000000000000000000000000000000000000000000600052602260045260246000fd5b60006002820490506001821680610b3157607f821691505b602082108103610b4457610b43610aea565b5b50919050565b7f5072696365206d7573742062652067726561746572207468616e207a65726f00600082015250565b6000610b80601f836107c6565b9150610b8b82610b4a565b602082019050919050565b60006020820190508181036000830152610baf81610b73565b9050919050565b7f4e487b7100000000000000000000000000000000000000000000000000000000600052604160045260246000fd5b60008190508160005260206000209050919050565b60006020601f8301049050919050565b600082821b905092915050565b600060088302610c477fffffffffffffffffffffffffffffffffffffffffffffffffffffffffffffffff82610c0a565b610c518683610c0a565b95508019841693508086168417925050509392505050565b6000819050919050565b6000610c8e610c89610c8484610758565b610c69565b610758565b9050919050565b6000819050919050565b610ca883610c73565b610cbc610cb482610c95565b848454610c17565b825550505050565b600090565b610cd1610cc4565b610cdc818484610c9f565b505050565b5b81811015610d0057610cf5600082610cc9565b600181019050610ce2565b5050565b601f821115610d4557610d1681610be5565b610d1f84610bfa565b81016020851015610d2e578190505b610d42610d3a85610bfa565b830182610ce1565b50505b505050565b600082821c905092915050565b6000610d6860001984600802610d4a565b1980831691505092915050565b6000610d818383610d57565b9150826002028217905092915050565b610d9a826107bb565b67ffffffffffffffff811115610db357610db2610bb6565b5b610dbd8254610b19565b610dc8828285610d04565b600060209050601f831160018114610dfb5760008415610de9578287015190505b610df38582610d75565b865550610e5b565b601f198416610e0986610be5565b60005b82811015610e3157848901518255600182019150602085019450602081019050610e0c565b86831015610e4e5784890151610e4a601f891682610d57565b8355505b6001600288020188555050505b505050505050565b7f4e487b7100000000000000000000000000000000000000000000000000000000600052601160045260246000fd5b6000610e9d82610758565b9150610ea883610758565b9250828203905081811115610ec057610ebf610e63565b5b92915050565b82818337600083830152505050565b6000610ee183856107c6565b9350610eee838584610ec6565b610ef783610801565b840190509392505050565b60006040820190508181036000830152610f1d818587610ed5565b9050610f2c602083018461084b565b949350505050565b7f4974656d206e6f7420617661696c61626c6520666f722073616c650000000000600082015250565b6000610f6a601b836107c6565b9150610f7582610f34565b602082019050919050565b60006020820190508181036000830152610f9981610f5d565b9050919050565b7f496e636f72726563742045544820616d6f756e742073656e7400000000000000600082015250565b6000610fd66019836107c6565b9150610fe182610fa0565b602082019050919050565b6000602082019050818103600083015261100581610fc9565b905091905056fea264697066735822122053b564cda3b55c4dab6f8fd7a75d0edd1f630bb974c3ca3851f50361eca5266e64736f6c634300081b0033",
          "opcodes": "PUSH1 0x80 PUSH1 0x40 MSTORE CALLVALUE DUP1 ISZERO PUSH1 0xF JUMPI PUSH1 0x0 DUP1 REVERT JUMPDEST POP PUSH2 0x1042 DUP1 PUSH2 0x1F PUSH1 0x0 CODECOPY PUSH1 0x0 RETURN INVALID PUSH1 0x80 PUSH1 0x40 MSTORE PUSH1 0x4 CALLDATASIZE LT PUSH2 0x4A JUMPI PUSH1 0x0 CALLDATALOAD PUSH1 0xE0 SHR DUP1 PUSH4 0x3129E773 EQ PUSH2 0x4F JUMPI DUP1 PUSH4 0x7749CF23 EQ PUSH2 0x8F JUMPI DUP1 PUSH4 0x8511C937 EQ PUSH2 0xBA JUMPI DUP1 PUSH4 0xBFB231D2 EQ PUSH2 0xE3 JUMPI DUP1 PUSH4 0xD38EA5BF EQ PUSH2 0x123 JUMPI JUMPDEST PUSH1 0x0 DUP1 REVERT JUMPDEST CALLVALUE DUP1 ISZERO PUSH2 0x5B JUMPI PUSH1 0x0 DUP1 REVERT JUMPDEST POP PUSH2 0x76 PUSH1 0x4 DUP1 CALLDATASIZE SUB DUP2 ADD SWAP1 PUSH2 0x71 SWAP2 SWAP1 PUSH2 0x78E JUMP JUMPDEST PUSH2 0x13F JUMP JUMPDEST PUSH1 0x40 MLOAD PUSH2 0x86 SWAP5 SWAP4 SWAP3 SWAP2 SWAP1 PUSH2 0x8B6 JUMP JUMPDEST PUSH1 0x40 MLOAD DUP1 SWAP2 SUB SWAP1 RETURN JUMPDEST CALLVALUE DUP1 ISZERO PUSH2 0x9B JUMPI PUSH1 0x0 DUP1 REVERT JUMPDEST POP PUSH2 0xA4 PUSH2 0x28D JUMP JUMPDEST PUSH1 0x40 MLOAD PUSH2 0xB1 SWAP2 SWAP1 PUSH2 0x902 JUMP JUMPDEST PUSH1 0x40 MLOAD DUP1 SWAP2 SUB SWAP1 RETURN JUMPDEST CALLVALUE DUP1 ISZERO PUSH2 0xC6 JUMPI PUSH1 0x0 DUP1 REVERT JUMPDEST POP PUSH2 0xE1 PUSH1 0x4 DUP1 CALLDATASIZE SUB DUP2 ADD SWAP1 PUSH2 0xDC SWAP2 SWAP1 PUSH2 0x982 JUMP JUMPDEST PUSH2 0x299 JUMP JUMPDEST STOP JUMPDEST CALLVALUE DUP1 ISZERO PUSH2 0xEF JUMPI PUSH1 0x0 DUP1 REVERT JUMPDEST POP PUSH2 0x10A PUSH1 0x4 DUP1 CALLDATASIZE SUB DUP2 ADD SWAP1 PUSH2 0x105 SWAP2 SWAP1 PUSH2 0x78E JUMP JUMPDEST PUSH2 0x477 JUMP JUMPDEST PUSH1 0x40 MLOAD PUSH2 0x11A SWAP5 SWAP4 SWAP3 SWAP2 SWAP1 PUSH2 0xA03 JUMP JUMPDEST PUSH1 0x40 MLOAD DUP1 SWAP2 SUB SWAP1 RETURN JUMPDEST PUSH2 0x13D PUSH1 0x4 DUP1 CALLDATASIZE SUB DUP2 ADD SWAP1 PUSH2 0x138 SWAP2 SWAP1 PUSH2 0x78E JUMP JUMPDEST PUSH2 0x56C JUMP JUMPDEST STOP JUMPDEST PUSH1 0x60 PUSH1 0x0 DUP1 PUSH1 0x0 DUP1 DUP1 SLOAD SWAP1 POP DUP6 LT PUSH2 0x18C JUMPI PUSH1 0x40 MLOAD PUSH32 0x8C379A000000000000000000000000000000000000000000000000000000000 DUP2 MSTORE PUSH1 0x4 ADD PUSH2 0x183 SWAP1 PUSH2 0xA9B JUMP JUMPDEST PUSH1 0x40 MLOAD DUP1 SWAP2 SUB SWAP1 REVERT JUMPDEST PUSH1 0x0 DUP1 DUP7 DUP2 SLOAD DUP2 LT PUSH2 0x1A1 JUMPI PUSH2 0x1A0 PUSH2 0xABB JUMP JUMPDEST JUMPDEST SWAP1 PUSH1 0x0 MSTORE PUSH1 0x20 PUSH1 0x0 KECCAK256 SWAP1 PUSH1 0x3 MUL ADD SWAP1 POP DUP1 PUSH1 0x0 ADD DUP2 PUSH1 0x1 ADD SLOAD DUP3 PUSH1 0x2 ADD PUSH1 0x0 SWAP1 SLOAD SWAP1 PUSH2 0x100 EXP SWAP1 DIV PUSH20 0xFFFFFFFFFFFFFFFFFFFFFFFFFFFFFFFFFFFFFFFF AND DUP4 PUSH1 0x2 ADD PUSH1 0x14 SWAP1 SLOAD SWAP1 PUSH2 0x100 EXP SWAP1 DIV PUSH1 0xFF AND DUP4 DUP1 SLOAD PUSH2 0x1FD SWAP1 PUSH2 0xB19 JUMP JUMPDEST DUP1 PUSH1 0x1F ADD PUSH1 0x20 DUP1 SWAP2 DIV MUL PUSH1 0x20 ADD PUSH1 0x40 MLOAD SWAP1 DUP2 ADD PUSH1 0x40 MSTORE DUP1 SWAP3 SWAP2 SWAP1 DUP2 DUP2 MSTORE PUSH1 0x20 ADD DUP3 DUP1 SLOAD PUSH2 0x229 SWAP1 PUSH2 0xB19 JUMP JUMPDEST DUP1 ISZERO PUSH2 0x276 JUMPI DUP1 PUSH1 0x1F LT PUSH2 0x24B JUMPI PUSH2 0x100 DUP1 DUP4 SLOAD DIV MUL DUP4 MSTORE SWAP2 PUSH1 0x20 ADD SWAP2 PUSH2 0x276 JUMP JUMPDEST DUP3 ADD SWAP2 SWAP1 PUSH1 0x0 MSTORE PUSH1 0x20 PUSH1 0x0 KECCAK256 SWAP1 JUMPDEST DUP2 SLOAD DUP2 MSTORE SWAP1 PUSH1 0x1 ADD SWAP1 PUSH1 0x20 ADD DUP1 DUP4 GT PUSH2 0x259 JUMPI DUP3 SWAP1 SUB PUSH1 0x1F AND DUP3 ADD SWAP2 JUMPDEST POP POP POP POP POP SWAP4 POP SWAP5 POP SWAP5 POP SWAP5 POP SWAP5 POP POP SWAP2 SWAP4 POP SWAP2 SWAP4 JUMP JUMPDEST PUSH1 0x0 DUP1 DUP1 SLOAD SWAP1 POP SWAP1 POP SWAP1 JUMP JUMPDEST PUSH1 0x0 DUP2 GT PUSH2 0x2DC JUMPI PUSH1 0x40 MLOAD PUSH32 0x8C379A000000000000000000000000000000000000000000000000000000000 DUP2 MSTORE PUSH1 0x4 ADD PUSH2 0x2D3 SWAP1 PUSH2 0xB96 JUMP JUMPDEST PUSH1 0x40 MLOAD DUP1 SWAP2 SUB SWAP1 REVERT JUMPDEST PUSH1 0x0 PUSH1 0x40 MLOAD DUP1 PUSH1 0x80 ADD PUSH1 0x40 MSTORE DUP1 DUP6 DUP6 DUP1 DUP1 PUSH1 0x1F ADD PUSH1 0x20 DUP1 SWAP2 DIV MUL PUSH1 0x20 ADD PUSH1 0x40 MLOAD SWAP1 DUP2 ADD PUSH1 0x40 MSTORE DUP1 SWAP4 SWAP3 SWAP2 SWAP1 DUP2 DUP2 MSTORE PUSH1 0x20 ADD DUP4 DUP4 DUP1 DUP3 DUP5 CALLDATACOPY PUSH1 0x0 DUP2 DUP5 ADD MSTORE PUSH1 0x1F NOT PUSH1 0x1F DUP3 ADD AND SWAP1 POP DUP1 DUP4 ADD SWAP3 POP POP POP POP POP POP POP DUP2 MSTORE PUSH1 0x20 ADD DUP4 DUP2 MSTORE PUSH1 0x20 ADD CALLER PUSH20 0xFFFFFFFFFFFFFFFFFFFFFFFFFFFFFFFFFFFFFFFF AND DUP2 MSTORE PUSH1 0x20 ADD PUSH1 0x1 ISZERO ISZERO DUP2 MSTORE POP SWAP1 DUP1 PUSH1 0x1 DUP2 SLOAD ADD DUP1 DUP3 SSTORE DUP1 SWAP2 POP POP PUSH1 0x1 SWAP1 SUB SWAP1 PUSH1 0x0 MSTORE PUSH1 0x20 PUSH1 0x0 KECCAK256 SWAP1 PUSH1 0x3 MUL ADD PUSH1 0x0 SWAP1 SWAP2 SWAP1 SWAP2 SWAP1 SWAP2 POP PUSH1 0x0 DUP3 ADD MLOAD DUP2 PUSH1 0x0 ADD SWAP1 DUP2 PUSH2 0x39A SWAP2 SWAP1 PUSH2 0xD91 JUMP JUMPDEST POP PUSH1 0x20 DUP3 ADD MLOAD DUP2 PUSH1 0x1 ADD SSTORE PUSH1 0x40 DUP3 ADD MLOAD DUP2 PUSH1 0x2 ADD PUSH1 0x0 PUSH2 0x100 EXP DUP2 SLOAD DUP2 PUSH20 0xFFFFFFFFFFFFFFFFFFFFFFFFFFFFFFFFFFFFFFFF MUL NOT AND SWAP1 DUP4 PUSH20 0xFFFFFFFFFFFFFFFFFFFFFFFFFFFFFFFFFFFFFFFF AND MUL OR SWAP1 SSTORE POP PUSH1 0x60 DUP3 ADD MLOAD DUP2 PUSH1 0x2 ADD PUSH1 0x14 PUSH2 0x100 EXP DUP2 SLOAD DUP2 PUSH1 0xFF MUL NOT AND SWAP1 DUP4 ISZERO ISZERO MUL OR SWAP1 SSTORE POP POP POP CALLER PUSH20 0xFFFFFFFFFFFFFFFFFFFFFFFFFFFFFFFFFFFFFFFF AND PUSH1 0x1 PUSH1 0x0 DUP1 SLOAD SWAP1 POP PUSH2 0x437 SWAP2 SWAP1 PUSH2 0xE92 JUMP JUMPDEST PUSH32 0x16244E47AF8A7D2C923FAA2CAB44315C0514C7AA830682BBB9CC8F0D37AD7548 DUP6 DUP6 DUP6 PUSH1 0x40 MLOAD PUSH2 0x46A SWAP4 SWAP3 SWAP2 SWAP1 PUSH2 0xF02 JUMP JUMPDEST PUSH1 0x40 MLOAD DUP1 SWAP2 SUB SWAP1 LOG3 POP POP POP JUMP JUMPDEST PUSH1 0x0 DUP2 DUP2 SLOAD DUP2 LT PUSH2 0x487 JUMPI PUSH1 0x0 DUP1 REVERT JUMPDEST SWAP1 PUSH1 0x0 MSTORE PUSH1 0x20 PUSH1 0x0 KECCAK256 SWAP1 PUSH1 0x3 MUL ADD PUSH1 0x0 SWAP2 POP SWAP1 POP DUP1 PUSH1 0x0 ADD DUP1 SLOAD PUSH2 0x4AA SWAP1 PUSH2 0xB19 JUMP JUMPDEST DUP1 PUSH1 0x1F ADD PUSH1 0x20 DUP1 SWAP2 DIV MUL PUSH1 0x20 ADD PUSH1 0x40 MLOAD SWAP1 DUP2 ADD PUSH1 0x40 MSTORE DUP1 SWAP3 SWAP2 SWAP1 DUP2 DUP2 MSTORE PUSH1 0x20 ADD DUP3 DUP1 SLOAD PUSH2 0x4D6 SWAP1 PUSH2 0xB19 JUMP JUMPDEST DUP1 ISZERO PUSH2 0x523 JUMPI DUP1 PUSH1 0x1F LT PUSH2 0x4F8 JUMPI PUSH2 0x100 DUP1 DUP4 SLOAD DIV MUL DUP4 MSTORE SWAP2 PUSH1 0x20 ADD SWAP2 PUSH2 0x523 JUMP JUMPDEST DUP3 ADD SWAP2 SWAP1 PUSH1 0x0 MSTORE PUSH1 0x20 PUSH1 0x0 KECCAK256 SWAP1 JUMPDEST DUP2 SLOAD DUP2 MSTORE SWAP1 PUSH1 0x1 ADD SWAP1 PUSH1 0x20 ADD DUP1 DUP4 GT PUSH2 0x506 JUMPI DUP3 SWAP1 SUB PUSH1 0x1F AND DUP3 ADD SWAP2 JUMPDEST POP POP POP POP POP SWAP1 DUP1 PUSH1 0x1 ADD SLOAD SWAP1 DUP1 PUSH1 0x2 ADD PUSH1 0x0 SWAP1 SLOAD SWAP1 PUSH2 0x100 EXP SWAP1 DIV PUSH20 0xFFFFFFFFFFFFFFFFFFFFFFFFFFFFFFFFFFFFFFFF AND SWAP1 DUP1 PUSH1 0x2 ADD PUSH1 0x14 SWAP1 SLOAD SWAP1 PUSH2 0x100 EXP SWAP1 DIV PUSH1 0xFF AND SWAP1 POP DUP5 JUMP JUMPDEST PUSH1 0x0 DUP1 SLOAD SWAP1 POP DUP2 LT PUSH2 0x5B3 JUMPI PUSH1 0x40 MLOAD PUSH32 0x8C379A000000000000000000000000000000000000000000000000000000000 DUP2 MSTORE PUSH1 0x4 ADD PUSH2 0x5AA SWAP1 PUSH2 0xA9B JUMP JUMPDEST PUSH1 0x40 MLOAD DUP1 SWAP2 SUB SWAP1 REVERT JUMPDEST PUSH1 0x0 DUP1 DUP3 DUP2 SLOAD DUP2 LT PUSH2 0x5C8 JUMPI PUSH2 0x5C7 PUSH2 0xABB JUMP JUMPDEST JUMPDEST SWAP1 PUSH1 0x0 MSTORE PUSH1 0x20 PUSH1 0x0 KECCAK256 SWAP1 PUSH1 0x3 MUL ADD SWAP1 POP DUP1 PUSH1 0x2 ADD PUSH1 0x14 SWAP1 SLOAD SWAP1 PUSH2 0x100 EXP SWAP1 DIV PUSH1 0xFF AND PUSH2 0x629 JUMPI PUSH1 0x40 MLOAD PUSH32 0x8C379A000000000000000000000000000000000000000000000000000000000 DUP2 MSTORE PUSH1 0x4 ADD PUSH2 0x620 SWAP1 PUSH2 0xF80 JUMP JUMPDEST PUSH1 0x40 MLOAD DUP1 SWAP2 SUB SWAP1 REVERT JUMPDEST DUP1 PUSH1 0x1 ADD SLOAD CALLVALUE EQ PUSH2 0x66F JUMPI PUSH1 0x40 MLOAD PUSH32 0x8C379A000000000000000000000000000000000000000000000000000000000 DUP2 MSTORE PUSH1 0x4 ADD PUSH2 0x666 SWAP1 PUSH2 0xFEC JUMP JUMPDEST PUSH1 0x40 MLOAD DUP1 SWAP2 SUB SWAP1 REVERT JUMPDEST PUSH1 0x0 DUP2 PUSH1 0x2 ADD PUSH1 0x14 PUSH2 0x100 EXP DUP2 SLOAD DUP2 PUSH1 0xFF MUL NOT AND SWAP1 DUP4 ISZERO ISZERO MUL OR SWAP1 SSTORE POP DUP1 PUSH1 0x2 ADD PUSH1 0x0 SWAP1 SLOAD SWAP1 PUSH2 0x100 EXP SWAP1 DIV PUSH20 0xFFFFFFFFFFFFFFFFFFFFFFFFFFFFFFFFFFFFFFFF AND PUSH20 0xFFFFFFFFFFFFFFFFFFFFFFFFFFFFFFFFFFFFFFFF AND PUSH2 0x8FC CALLVALUE SWAP1 DUP2 ISZERO MUL SWAP1 PUSH1 0x40 MLOAD PUSH1 0x0 PUSH1 0x40 MLOAD DUP1 DUP4 SUB DUP2 DUP6 DUP9 DUP9 CALL SWAP4 POP POP POP POP ISZERO DUP1 ISZERO PUSH2 0x6F6 JUMPI RETURNDATASIZE PUSH1 0x0 DUP1 RETURNDATACOPY RETURNDATASIZE PUSH1 0x0 REVERT JUMPDEST POP CALLER PUSH20 0xFFFFFFFFFFFFFFFFFFFFFFFFFFFFFFFFFFFFFFFF AND DUP3 PUSH32 0x78A0660BBDA86D17037943644187F6F1F73F2F20A3240BF4CF4A56C2A96BCF84 DUP4 PUSH1 0x1 ADD SLOAD PUSH1 0x40 MLOAD PUSH2 0x742 SWAP2 SWAP1 PUSH2 0x902 JUMP JUMPDEST PUSH1 0x40 MLOAD DUP1 SWAP2 SUB SWAP1 LOG3 POP POP JUMP JUMPDEST PUSH1 0x0 DUP1 REVERT JUMPDEST PUSH1 0x0 DUP1 REVERT JUMPDEST PUSH1 0x0 DUP2 SWAP1 POP SWAP2 SWAP1 POP JUMP JUMPDEST PUSH2 0x76B DUP2 PUSH2 0x758 JUMP JUMPDEST DUP2 EQ PUSH2 0x776 JUMPI PUSH1 0x0 DUP1 REVERT JUMPDEST POP JUMP JUMPDEST PUSH1 0x0 DUP2 CALLDATALOAD SWAP1 POP PUSH2 0x788 DUP2 PUSH2 0x762 JUMP JUMPDEST SWAP3 SWAP2 POP POP JUMP JUMPDEST PUSH1 0x0 PUSH1 0x20 DUP3 DUP5 SUB SLT ISZERO PUSH2 0x7A4 JUMPI PUSH2 0x7A3 PUSH2 0x74E JUMP JUMPDEST JUMPDEST PUSH1 0x0 PUSH2 0x7B2 DUP5 DUP3 DUP6 ADD PUSH2 0x779 JUMP JUMPDEST SWAP2 POP POP SWAP3 SWAP2 POP POP JUMP JUMPDEST PUSH1 0x0 DUP2 MLOAD SWAP1 POP SWAP2 SWAP1 POP JUMP JUMPDEST PUSH1 0x0 DUP3 DUP3 MSTORE PUSH1 0x20 DUP3 ADD SWAP1 POP SWAP3 SWAP2 POP POP JUMP JUMPDEST PUSH1 0x0 JUMPDEST DUP4 DUP2 LT ISZERO PUSH2 0x7F5 JUMPI DUP1 DUP3 ADD MLOAD DUP2 DUP5 ADD MSTORE PUSH1 0x20 DUP2 ADD SWAP1 POP PUSH2 0x7DA JUMP JUMPDEST PUSH1 0x0 DUP5 DUP5 ADD MSTORE POP POP POP POP JUMP JUMPDEST PUSH1 0x0 PUSH1 0x1F NOT PUSH1 0x1F DUP4 ADD AND SWAP1 POP SWAP2 SWAP1 POP JUMP JUMPDEST PUSH1 0x0 PUSH2 0x81D DUP3 PUSH2 0x7BB JUMP JUMPDEST PUSH2 0x827 DUP2 DUP6 PUSH2 0x7C6 JUMP JUMPDEST SWAP4 POP PUSH2 0x837 DUP2 DUP6 PUSH1 0x20 DUP7 ADD PUSH2 0x7D7 JUMP JUMPDEST PUSH2 0x840 DUP2 PUSH2 0x801 JUMP JUMPDEST DUP5 ADD SWAP2 POP POP SWAP3 SWAP2 POP POP JUMP JUMPDEST PUSH2 0x854 DUP2 PUSH2 0x758 JUMP JUMPDEST DUP3 MSTORE POP POP JUMP JUMPDEST PUSH1 0x0 PUSH20 0xFFFFFFFFFFFFFFFFFFFFFFFFFFFFFFFFFFFFFFFF DUP3 AND SWAP1 POP SWAP2 SWAP1 POP JUMP JUMPDEST PUSH1 0x0 PUSH2 0x885 DUP3 PUSH2 0x85A JUMP JUMPDEST SWAP1 POP SWAP2 SWAP1 POP JUMP JUMPDEST PUSH2 0x895 DUP2 PUSH2 0x87A JUMP JUMPDEST DUP3 MSTORE POP POP JUMP JUMPDEST PUSH1 0x0 DUP2 ISZERO ISZERO SWAP1 POP SWAP2 SWAP1 POP JUMP JUMPDEST PUSH2 0x8B0 DUP2 PUSH2 0x89B JUMP JUMPDEST DUP3 MSTORE POP POP JUMP JUMPDEST PUSH1 0x0 PUSH1 0x80 DUP3 ADD SWAP1 POP DUP2 DUP2 SUB PUSH1 0x0 DUP4 ADD MSTORE PUSH2 0x8D0 DUP2 DUP8 PUSH2 0x812 JUMP JUMPDEST SWAP1 POP PUSH2 0x8DF PUSH1 0x20 DUP4 ADD DUP7 PUSH2 0x84B JUMP JUMPDEST PUSH2 0x8EC PUSH1 0x40 DUP4 ADD DUP6 PUSH2 0x88C JUMP JUMPDEST PUSH2 0x8F9 PUSH1 0x60 DUP4 ADD DUP5 PUSH2 0x8A7 JUMP JUMPDEST SWAP6 SWAP5 POP POP POP POP POP JUMP JUMPDEST PUSH1 0x0 PUSH1 0x20 DUP3 ADD SWAP1 POP PUSH2 0x917 PUSH1 0x0 DUP4 ADD DUP5 PUSH2 0x84B JUMP JUMPDEST SWAP3 SWAP2 POP POP JUMP JUMPDEST PUSH1 0x0 DUP1 REVERT JUMPDEST PUSH1 0x0 DUP1 REVERT JUMPDEST PUSH1 0x0 DUP1 REVERT JUMPDEST PUSH1 0x0 DUP1 DUP4 PUSH1 0x1F DUP5 ADD SLT PUSH2 0x942 JUMPI PUSH2 0x941 PUSH2 0x91D JUMP JUMPDEST JUMPDEST DUP3 CALLDATALOAD SWAP1 POP PUSH8 0xFFFFFFFFFFFFFFFF DUP2 GT ISZERO PUSH2 0x95F JUMPI PUSH2 0x95E PUSH2 0x922 JUMP JUMPDEST JUMPDEST PUSH1 0x20 DUP4 ADD SWAP2 POP DUP4 PUSH1 0x1 DUP3 MUL DUP4 ADD GT ISZERO PUSH2 0x97B JUMPI PUSH2 0x97A PUSH2 0x927 JUMP JUMPDEST JUMPDEST SWAP3 POP SWAP3 SWAP1 POP JUMP JUMPDEST PUSH1 0x0 DUP1 PUSH1 0x0 PUSH1 0x40 DUP5 DUP7 SUB SLT ISZERO PUSH2 0x99B JUMPI PUSH2 0x99A PUSH2 0x74E JUMP JUMPDEST JUMPDEST PUSH1 0x0 DUP5 ADD CALLDATALOAD PUSH8 0xFFFFFFFFFFFFFFFF DUP2 GT ISZERO PUSH2 0x9B9 JUMPI PUSH2 0x9B8 PUSH2 0x753 JUMP JUMPDEST JUMPDEST PUSH2 0x9C5 DUP7 DUP3 DUP8 ADD PUSH2 0x92C JUMP JUMPDEST SWAP4 POP SWAP4 POP POP PUSH1 0x20 PUSH2 0x9D8 DUP7 DUP3 DUP8 ADD PUSH2 0x779 JUMP JUMPDEST SWAP2 POP POP SWAP3 POP SWAP3 POP SWAP3 JUMP JUMPDEST PUSH1 0x0 PUSH2 0x9ED DUP3 PUSH2 0x85A JUMP JUMPDEST SWAP1 POP SWAP2 SWAP1 POP JUMP JUMPDEST PUSH2 0x9FD DUP2 PUSH2 0x9E2 JUMP JUMPDEST DUP3 MSTORE POP POP JUMP JUMPDEST PUSH1 0x0 PUSH1 0x80 DUP3 ADD SWAP1 POP DUP2 DUP2 SUB PUSH1 0x0 DUP4 ADD MSTORE PUSH2 0xA1D DUP2 DUP8 PUSH2 0x812 JUMP JUMPDEST SWAP1 POP PUSH2 0xA2C PUSH1 0x20 DUP4 ADD DUP7 PUSH2 0x84B JUMP JUMPDEST PUSH2 0xA39 PUSH1 0x40 DUP4 ADD DUP6 PUSH2 0x9F4 JUMP JUMPDEST PUSH2 0xA46 PUSH1 0x60 DUP4 ADD DUP5 PUSH2 0x8A7 JUMP JUMPDEST SWAP6 SWAP5 POP POP POP POP POP JUMP JUMPDEST PUSH32 0x496E76616C6964206974656D2049440000000000000000000000000000000000 PUSH1 0x0 DUP3 ADD MSTORE POP JUMP JUMPDEST PUSH1 0x0 PUSH2 0xA85 PUSH1 0xF DUP4 PUSH2 0x7C6 JUMP JUMPDEST SWAP2 POP PUSH2 0xA90 DUP3 PUSH2 0xA4F JUMP JUMPDEST PUSH1 0x20 DUP3 ADD SWAP1 POP SWAP2 SWAP1 POP JUMP JUMPDEST PUSH1 0x0 PUSH1 0x20 DUP3 ADD SWAP1 POP DUP2 DUP2 SUB PUSH1 0x0 DUP4 ADD MSTORE PUSH2 0xAB4 DUP2 PUSH2 0xA78 JUMP JUMPDEST SWAP1 POP SWAP2 SWAP1 POP JUMP JUMPDEST PUSH32 0x4E487B7100000000000000000000000000000000000000000000000000000000 PUSH1 0x0 MSTORE PUSH1 0x32 PUSH1 0x4 MSTORE PUSH1 0x24 PUSH1 0x0 REVERT JUMPDEST PUSH32 0x4E487B7100000000000000000000000000000000000000000000000000000000 PUSH1 0x0 MSTORE PUSH1 0x22 PUSH1 0x4 MSTORE PUSH1 0x24 PUSH1 0x0 REVERT JUMPDEST PUSH1 0x0 PUSH1 0x2 DUP3 DIV SWAP1 POP PUSH1 0x1 DUP3 AND DUP1 PUSH2 0xB31 JUMPI PUSH1 0x7F DUP3 AND SWAP2 POP JUMPDEST PUSH1 0x20 DUP3 LT DUP2 SUB PUSH2 0xB44 JUMPI PUSH2 0xB43 PUSH2 0xAEA JUMP JUMPDEST JUMPDEST POP SWAP2 SWAP1 POP JUMP JUMPDEST PUSH32 0x5072696365206D7573742062652067726561746572207468616E207A65726F00 PUSH1 0x0 DUP3 ADD MSTORE POP JUMP JUMPDEST PUSH1 0x0 PUSH2 0xB80 PUSH1 0x1F DUP4 PUSH2 0x7C6 JUMP JUMPDEST SWAP2 POP PUSH2 0xB8B DUP3 PUSH2 0xB4A JUMP JUMPDEST PUSH1 0x20 DUP3 ADD SWAP1 POP SWAP2 SWAP1 POP JUMP JUMPDEST PUSH1 0x0 PUSH1 0x20 DUP3 ADD SWAP1 POP DUP2 DUP2 SUB PUSH1 0x0 DUP4 ADD MSTORE PUSH2 0xBAF DUP2 PUSH2 0xB73 JUMP JUMPDEST SWAP1 POP SWAP2 SWAP1 POP JUMP JUMPDEST PUSH32 0x4E487B7100000000000000000000000000000000000000000000000000000000 PUSH1 0x0 MSTORE PUSH1 0x41 PUSH1 0x4 MSTORE PUSH1 0x24 PUSH1 0x0 REVERT JUMPDEST PUSH1 0x0 DUP2 SWAP1 POP DUP2 PUSH1 0x0 MSTORE PUSH1 0x20 PUSH1 0x0 KECCAK256 SWAP1 POP SWAP2 SWAP1 POP JUMP JUMPDEST PUSH1 0x0 PUSH1 0x20 PUSH1 0x1F DUP4 ADD DIV SWAP1 POP SWAP2 SWAP1 POP JUMP JUMPDEST PUSH1 0x0 DUP3 DUP3 SHL SWAP1 POP SWAP3 SWAP2 POP POP JUMP JUMPDEST PUSH1 0x0 PUSH1 0x8 DUP4 MUL PUSH2 0xC47 PUSH32 0xFFFFFFFFFFFFFFFFFFFFFFFFFFFFFFFFFFFFFFFFFFFFFFFFFFFFFFFFFFFFFFFF DUP3 PUSH2 0xC0A JUMP JUMPDEST PUSH2 0xC51 DUP7 DUP4 PUSH2 0xC0A JUMP JUMPDEST SWAP6 POP DUP1 NOT DUP5 AND SWAP4 POP DUP1 DUP7 AND DUP5 OR SWAP3 POP POP POP SWAP4 SWAP3 POP POP POP JUMP JUMPDEST PUSH1 0x0 DUP2 SWAP1 POP SWAP2 SWAP1 POP JUMP JUMPDEST PUSH1 0x0 PUSH2 0xC8E PUSH2 0xC89 PUSH2 0xC84 DUP5 PUSH2 0x758 JUMP JUMPDEST PUSH2 0xC69 JUMP JUMPDEST PUSH2 0x758 JUMP JUMPDEST SWAP1 POP SWAP2 SWAP1 POP JUMP JUMPDEST PUSH1 0x0 DUP2 SWAP1 POP SWAP2 SWAP1 POP JUMP JUMPDEST PUSH2 0xCA8 DUP4 PUSH2 0xC73 JUMP JUMPDEST PUSH2 0xCBC PUSH2 0xCB4 DUP3 PUSH2 0xC95 JUMP JUMPDEST DUP5 DUP5 SLOAD PUSH2 0xC17 JUMP JUMPDEST DUP3 SSTORE POP POP POP POP JUMP JUMPDEST PUSH1 0x0 SWAP1 JUMP JUMPDEST PUSH2 0xCD1 PUSH2 0xCC4 JUMP JUMPDEST PUSH2 0xCDC DUP2 DUP5 DUP5 PUSH2 0xC9F JUMP JUMPDEST POP POP POP JUMP JUMPDEST JUMPDEST DUP2 DUP2 LT ISZERO PUSH2 0xD00 JUMPI PUSH2 0xCF5 PUSH1 0x0 DUP3 PUSH2 0xCC9 JUMP JUMPDEST PUSH1 0x1 DUP2 ADD SWAP1 POP PUSH2 0xCE2 JUMP JUMPDEST POP POP JUMP JUMPDEST PUSH1 0x1F DUP3 GT ISZERO PUSH2 0xD45 JUMPI PUSH2 0xD16 DUP2 PUSH2 0xBE5 JUMP JUMPDEST PUSH2 0xD1F DUP5 PUSH2 0xBFA JUMP JUMPDEST DUP2 ADD PUSH1 0x20 DUP6 LT ISZERO PUSH2 0xD2E JUMPI DUP2 SWAP1 POP JUMPDEST PUSH2 0xD42 PUSH2 0xD3A DUP6 PUSH2 0xBFA JUMP JUMPDEST DUP4 ADD DUP3 PUSH2 0xCE1 JUMP JUMPDEST POP POP JUMPDEST POP POP POP JUMP JUMPDEST PUSH1 0x0 DUP3 DUP3 SHR SWAP1 POP SWAP3 SWAP2 POP POP JUMP JUMPDEST PUSH1 0x0 PUSH2 0xD68 PUSH1 0x0 NOT DUP5 PUSH1 0x8 MUL PUSH2 0xD4A JUMP JUMPDEST NOT DUP1 DUP4 AND SWAP2 POP POP SWAP3 SWAP2 POP POP JUMP JUMPDEST PUSH1 0x0 PUSH2 0xD81 DUP4 DUP4 PUSH2 0xD57 JUMP JUMPDEST SWAP2 POP DUP3 PUSH1 0x2 MUL DUP3 OR SWAP1 POP SWAP3 SWAP2 POP POP JUMP JUMPDEST PUSH2 0xD9A DUP3 PUSH2 0x7BB JUMP JUMPDEST PUSH8 0xFFFFFFFFFFFFFFFF DUP2 GT ISZERO PUSH2 0xDB3 JUMPI PUSH2 0xDB2 PUSH2 0xBB6 JUMP JUMPDEST JUMPDEST PUSH2 0xDBD DUP3 SLOAD PUSH2 0xB19 JUMP JUMPDEST PUSH2 0xDC8 DUP3 DUP3 DUP6 PUSH2 0xD04 JUMP JUMPDEST PUSH1 0x0 PUSH1 0x20 SWAP1 POP PUSH1 0x1F DUP4 GT PUSH1 0x1 DUP2 EQ PUSH2 0xDFB JUMPI PUSH1 0x0 DUP5 ISZERO PUSH2 0xDE9 JUMPI DUP3 DUP8 ADD MLOAD SWAP1 POP JUMPDEST PUSH2 0xDF3 DUP6 DUP3 PUSH2 0xD75 JUMP JUMPDEST DUP7 SSTORE POP PUSH2 0xE5B JUMP JUMPDEST PUSH1 0x1F NOT DUP5 AND PUSH2 0xE09 DUP7 PUSH2 0xBE5 JUMP JUMPDEST PUSH1 0x0 JUMPDEST DUP3 DUP2 LT ISZERO PUSH2 0xE31 JUMPI DUP5 DUP10 ADD MLOAD DUP3 SSTORE PUSH1 0x1 DUP3 ADD SWAP2 POP PUSH1 0x20 DUP6 ADD SWAP5 POP PUSH1 0x20 DUP2 ADD SWAP1 POP PUSH2 0xE0C JUMP JUMPDEST DUP7 DUP4 LT ISZERO PUSH2 0xE4E JUMPI DUP5 DUP10 ADD MLOAD PUSH2 0xE4A PUSH1 0x1F DUP10 AND DUP3 PUSH2 0xD57 JUMP JUMPDEST DUP4 SSTORE POP JUMPDEST PUSH1 0x1 PUSH1 0x2 DUP9 MUL ADD DUP9 SSTORE POP POP POP JUMPDEST POP POP POP POP POP POP JUMP JUMPDEST PUSH32 0x4E487B7100000000000000000000000000000000000000000000000000000000 PUSH1 0x0 MSTORE PUSH1 0x11 PUSH1 0x4 MSTORE PUSH1 0x24 PUSH1 0x0 REVERT JUMPDEST PUSH1 0x0 PUSH2 0xE9D DUP3 PUSH2 0x758 JUMP JUMPDEST SWAP2 POP PUSH2 0xEA8 DUP4 PUSH2 0x758 JUMP JUMPDEST SWAP3 POP DUP3 DUP3 SUB SWAP1 POP DUP2 DUP2 GT ISZERO PUSH2 0xEC0 JUMPI PUSH2 0xEBF PUSH2 0xE63 JUMP JUMPDEST JUMPDEST SWAP3 SWAP2 POP POP JUMP JUMPDEST DUP3 DUP2 DUP4 CALLDATACOPY PUSH1 0x0 DUP4 DUP4 ADD MSTORE POP POP POP JUMP JUMPDEST PUSH1 0x0 PUSH2 0xEE1 DUP4 DUP6 PUSH2 0x7C6 JUMP JUMPDEST SWAP4 POP PUSH2 0xEEE DUP4 DUP6 DUP5 PUSH2 0xEC6 JUMP JUMPDEST PUSH2 0xEF7 DUP4 PUSH2 0x801 JUMP JUMPDEST DUP5 ADD SWAP1 POP SWAP4 SWAP3 POP POP POP JUMP JUMPDEST PUSH1 0x0 PUSH1 0x40 DUP3 ADD SWAP1 POP DUP2 DUP2 SUB PUSH1 0x0 DUP4 ADD MSTORE PUSH2 0xF1D DUP2 DUP6 DUP8 PUSH2 0xED5 JUMP JUMPDEST SWAP1 POP PUSH2 0xF2C PUSH1 0x20 DUP4 ADD DUP5 PUSH2 0x84B JUMP JUMPDEST SWAP5 SWAP4 POP POP POP POP JUMP JUMPDEST PUSH32 0x4974656D206E6F7420617661696C61626C6520666F722073616C650000000000 PUSH1 0x0 DUP3 ADD MSTORE POP JUMP JUMPDEST PUSH1 0x0 PUSH2 0xF6A PUSH1 0x1B DUP4 PUSH2 0x7C6 JUMP JUMPDEST SWAP2 POP PUSH2 0xF75 DUP3 PUSH2 0xF34 JUMP JUMPDEST PUSH1 0x20 DUP3 ADD SWAP1 POP SWAP2 SWAP1 POP JUMP JUMPDEST PUSH1 0x0 PUSH1 0x20 DUP3 ADD SWAP1 POP DUP2 DUP2 SUB PUSH1 0x0 DUP4 ADD MSTORE PUSH2 0xF99 DUP2 PUSH2 0xF5D JUMP JUMPDEST SWAP1 POP SWAP2 SWAP1 POP JUMP JUMPDEST PUSH32 0x496E636F72726563742045544820616D6F756E742073656E7400000000000000 PUSH1 0x0 DUP3 ADD MSTORE POP JUMP JUMPDEST PUSH1 0x0 PUSH2 0xFD6 PUSH1 0x19 DUP4 PUSH2 0x7C6 JUMP JUMPDEST SWAP2 POP PUSH2 0xFE1 DUP3 PUSH2 0xFA0 JUMP JUMPDEST PUSH1 0x20 DUP3 ADD SWAP1 POP SWAP2 SWAP1 POP JUMP JUMPDEST PUSH1 0x0 PUSH1 0x20 DUP3 ADD SWAP1 POP DUP2 DUP2 SUB PUSH1 0x0 DUP4 ADD MSTORE PUSH2 0x1005 DUP2 PUSH2 0xFC9 JUMP JUMPDEST SWAP1 POP SWAP2 SWAP1 POP JUMP INVALID LOG2 PUSH5 0x6970667358 0x22 SLT KECCAK256 MSTORE8 0xB5 PUSH5 0xCDA3B55C4D 0xAB PUSH16 0x8FD7A75D0EDD1F630BB974C3CA3851F5 SUB PUSH2 0xECA5 0x26 PUSH15 0x64736F6C634300081B003300000000 "
        },
        "methodIdentifiers": {
          "getItem(uint256)": "3129e773",
          "getItemCount()": "7749cf23",
          "items(uint256)": "bfb231d2",
          "listItem(string,uint256)": "8511c937",
          "purchaseItem(uint256)": "d38ea5bf"
        }
      }
    }
  }
}