{
  "_format": "hh-sol-artifact-1",
  "contractName": "MarketPlace",
  "sourceName": "contracts/MarketPlace.sol",
  "abi": [
    {
      "anonymous": false,
      "inputs": [
        {
          "indexed": true,
          "internalType": "uint256",
          "name": "itemId",
          "type": "uint256"
        },
        {
          "indexed": false,
          "internalType": "string",
          "name": "name",
          "type": "string"
        },
        {
          "indexed": false,
          "internalType": "uint256",
          "name": "price",
          "type": "uint256"
        },
        {
          "indexed": true,
          "internalType": "address",
          "name": "seller",
          "type": "address"
        }
      ],
      "name": "ItemListed",
      "type": "event"
    },
    {
      "anonymous": false,
      "inputs": [
        {
          "indexed": true,
          "internalType": "uint256",
          "name": "itemId",
          "type": "uint256"
        },
        {
          "indexed": true,
          "internalType": "address",
          "name": "buyer",
          "type": "address"
        },
        {
          "indexed": false,
          "internalType": "uint256",
          "name": "price",
          "type": "uint256"
        }
      ],
      "name": "ItemPurchased",
      "type": "event"
    },
    {
      "inputs": [
        {
          "internalType": "uint256",
          "name": "_itemId",
          "type": "uint256"
        }
      ],
      "name": "getItem",
      "outputs": [
        {
          "internalType": "string",
          "name": "name",
          "type": "string"
        },
        {
          "internalType": "uint256",
          "name": "price",
          "type": "uint256"
        },
        {
          "internalType": "address",
          "name": "seller",
          "type": "address"
        },
        {
          "internalType": "bool",
          "name": "isAvailable",
          "type": "bool"
        }
      ],
      "stateMutability": "view",
      "type": "function"
    },
    {
      "inputs": [],
      "name": "getItemCount",
      "outputs": [
        {
          "internalType": "uint256",
          "name": "",
          "type": "uint256"
        }
      ],
      "stateMutability": "view",
      "type": "function"
    },
    {
      "inputs": [
        {
          "internalType": "uint256",
          "name": "",
          "type": "uint256"
        }
      ],
      "name": "items",
      "outputs": [
        {
          "internalType": "string",
          "name": "name",
          "type": "string"
        },
        {
          "internalType": "uint256",
          "name": "price",
          "type": "uint256"
        },
        {
          "internalType": "address payable",
          "name": "seller",
          "type": "address"
        },
        {
          "internalType": "bool",
          "name": "isAvailable",
          "type": "bool"
        }
      ],
      "stateMutability": "view",
      "type": "function"
    },
    {
      "inputs": [
        {
          "internalType": "string",
          "name": "_name",
          "type": "string"
        },
        {
          "internalType": "uint256",
          "name": "_price",
          "type": "uint256"
        }
      ],
      "name": "listItem",
      "outputs": [],
      "stateMutability": "nonpayable",
      "type": "function"
    },
    {
      "inputs": [
        {
          "internalType": "uint256",
          "name": "_itemId",
          "type": "uint256"
        }
      ],
      "name": "purchaseItem",
      "outputs": [],
      "stateMutability": "payable",
      "type": "function"
    }
  ],
  "bytecode": "0x6080604052348015600f57600080fd5b506110428061001f6000396000f3fe60806040526004361061004a5760003560e01c80633129e7731461004f5780637749cf231461008f5780638511c937146100ba578063bfb231d2146100e3578063d38ea5bf14610123575b600080fd5b34801561005b57600080fd5b506100766004803603810190610071919061078e565b61013f565b60405161008694939291906108b6565b60405180910390f35b34801561009b57600080fd5b506100a461028d565b6040516100b19190610902565b60405180910390f35b3480156100c657600080fd5b506100e160048036038101906100dc9190610982565b610299565b005b3480156100ef57600080fd5b5061010a6004803603810190610105919061078e565b610477565b60405161011a9493929190610a03565b60405180910390f35b61013d6004803603810190610138919061078e565b61056c565b005b606060008060008080549050851061018c576040517f08c379a000000000000000000000000000000000000000000000000000000000815260040161018390610a9b565b60405180910390fd5b60008086815481106101a1576101a0610abb565b5b906000526020600020906003020190508060000181600101548260020160009054906101000a900473ffffffffffffffffffffffffffffffffffffffff168360020160149054906101000a900460ff168380546101fd90610b19565b80601f016020809104026020016040519081016040528092919081815260200182805461022990610b19565b80156102765780601f1061024b57610100808354040283529160200191610276565b820191906000526020600020905b81548152906001019060200180831161025957829003601f168201915b505050505093509450945094509450509193509193565b60008080549050905090565b600081116102dc576040517f08c379a00000000000000000000000000000000000000000000000000000000081526004016102d390610b96565b60405180910390fd5b6000604051806080016040528085858080601f016020809104026020016040519081016040528093929190818152602001838380828437600081840152601f19601f8201169050808301925050505050505081526020018381526020013373ffffffffffffffffffffffffffffffffffffffff168152602001600115158152509080600181540180825580915050600190039060005260206000209060030201600090919091909150600082015181600001908161039a9190610d91565b506020820151816001015560408201518160020160006101000a81548173ffffffffffffffffffffffffffffffffffffffff021916908373ffffffffffffffffffffffffffffffffffffffff16021790555060608201518160020160146101000a81548160ff02191690831515021790555050503373ffffffffffffffffffffffffffffffffffffffff1660016000805490506104379190610e92565b7f16244e47af8a7d2c923faa2cab44315c0514c7aa830682bbb9cc8f0d37ad754885858560405161046a93929190610f02565b60405180910390a3505050565b6000818154811061048757600080fd5b90600052602060002090600302016000915090508060000180546104aa90610b19565b80601f01602080910402602001604051908101604052809291908181526020018280546104d690610b19565b80156105235780601f106104f857610100808354040283529160200191610523565b820191906000526020600020905b81548152906001019060200180831161050657829003601f168201915b5050505050908060010154908060020160009054906101000a900473ffffffffffffffffffffffffffffffffffffffff16908060020160149054906101000a900460ff16905084565b60008054905081106105b3576040517f08c379a00000000000000000000000000000000000000000000000000000000081526004016105aa90610a9b565b60405180910390fd5b60008082815481106105c8576105c7610abb565b5b906000526020600020906003020190508060020160149054906101000a900460ff16610629576040517f08c379a000000000000000000000000000000000000000000000000000000000815260040161062090610f80565b60405180910390fd5b8060010154341461066f576040517f08c379a000000000000000000000000000000000000000000000000000000000815260040161066690610fec565b60405180910390fd5b60008160020160146101000a81548160ff0219169083151502179055508060020160009054906101000a900473ffffffffffffffffffffffffffffffffffffffff1673ffffffffffffffffffffffffffffffffffffffff166108fc349081150290604051600060405180830381858888f193505050501580156106f6573d6000803e3d6000fd5b503373ffffffffffffffffffffffffffffffffffffffff16827f78a0660bbda86d17037943644187f6f1f73f2f20a3240bf4cf4a56c2a96bcf8483600101546040516107429190610902565b60405180910390a35050565b600080fd5b600080fd5b6000819050919050565b61076b81610758565b811461077657600080fd5b50565b60008135905061078881610762565b92915050565b6000602082840312156107a4576107a361074e565b5b60006107b284828501610779565b91505092915050565b600081519050919050565b600082825260208201905092915050565b60005b838110156107f55780820151818401526020810190506107da565b60008484015250505050565b6000601f19601f8301169050919050565b600061081d826107bb565b61082781856107c6565b93506108378185602086016107d7565b61084081610801565b840191505092915050565b61085481610758565b82525050565b600073ffffffffffffffffffffffffffffffffffffffff82169050919050565b60006108858261085a565b9050919050565b6108958161087a565b82525050565b60008115159050919050565b6108b08161089b565b82525050565b600060808201905081810360008301526108d08187610812565b90506108df602083018661084b565b6108ec604083018561088c565b6108f960608301846108a7565b95945050505050565b6000602082019050610917600083018461084b565b92915050565b600080fd5b600080fd5b600080fd5b60008083601f8401126109425761094161091d565b5b8235905067ffffffffffffffff81111561095f5761095e610922565b5b60208301915083600182028301111561097b5761097a610927565b5b9250929050565b60008060006040848603121561099b5761099a61074e565b5b600084013567ffffffffffffffff8111156109b9576109b8610753565b5b6109c58682870161092c565b935093505060206109d886828701610779565b9150509250925092565b60006109ed8261085a565b9050919050565b6109fd816109e2565b82525050565b60006080820190508181036000830152610a1d8187610812565b9050610a2c602083018661084b565b610a3960408301856109f4565b610a4660608301846108a7565b95945050505050565b7f496e76616c6964206974656d2049440000000000000000000000000000000000600082015250565b6000610a85600f836107c6565b9150610a9082610a4f565b602082019050919050565b60006020820190508181036000830152610ab481610a78565b9050919050565b7f4e487b7100000000000000000000000000000000000000000000000000000000600052603260045260246000fd5b7f4e487b7100000000000000000000000000000000000000000000000000000000600052602260045260246000fd5b60006002820490506001821680610b3157607f821691505b602082108103610b4457610b43610aea565b5b50919050565b7f5072696365206d7573742062652067726561746572207468616e207a65726f00600082015250565b6000610b80601f836107c6565b9150610b8b82610b4a565b602082019050919050565b60006020820190508181036000830152610baf81610b73565b9050919050565b7f4e487b7100000000000000000000000000000000000000000000000000000000600052604160045260246000fd5b60008190508160005260206000209050919050565b60006020601f8301049050919050565b600082821b905092915050565b600060088302610c477fffffffffffffffffffffffffffffffffffffffffffffffffffffffffffffffff82610c0a565b610c518683610c0a565b95508019841693508086168417925050509392505050565b6000819050919050565b6000610c8e610c89610c8484610758565b610c69565b610758565b9050919050565b6000819050919050565b610ca883610c73565b610cbc610cb482610c95565b848454610c17565b825550505050565b600090565b610cd1610cc4565b610cdc818484610c9f565b505050565b5b81811015610d0057610cf5600082610cc9565b600181019050610ce2565b5050565b601f821115610d4557610d1681610be5565b610d1f84610bfa565b81016020851015610d2e578190505b610d42610d3a85610bfa565b830182610ce1565b50505b505050565b600082821c905092915050565b6000610d6860001984600802610d4a565b1980831691505092915050565b6000610d818383610d57565b9150826002028217905092915050565b610d9a826107bb565b67ffffffffffffffff811115610db357610db2610bb6565b5b610dbd8254610b19565b610dc8828285610d04565b600060209050601f831160018114610dfb5760008415610de9578287015190505b610df38582610d75565b865550610e5b565b601f198416610e0986610be5565b60005b82811015610e3157848901518255600182019150602085019450602081019050610e0c565b86831015610e4e5784890151610e4a601f891682610d57565b8355505b6001600288020188555050505b505050505050565b7f4e487b7100000000000000000000000000000000000000000000000000000000600052601160045260246000fd5b6000610e9d82610758565b9150610ea883610758565b9250828203905081811115610ec057610ebf610e63565b5b92915050565b82818337600083830152505050565b6000610ee183856107c6565b9350610eee838584610ec6565b610ef783610801565b840190509392505050565b60006040820190508181036000830152610f1d818587610ed5565b9050610f2c602083018461084b565b949350505050565b7f4974656d206e6f7420617661696c61626c6520666f722073616c650000000000600082015250565b6000610f6a601b836107c6565b9150610f7582610f34565b602082019050919050565b60006020820190508181036000830152610f9981610f5d565b9050919050565b7f496e636f72726563742045544820616d6f756e742073656e7400000000000000600082015250565b6000610fd66019836107c6565b9150610fe182610fa0565b602082019050919050565b6000602082019050818103600083015261100581610fc9565b905091905056fea264697066735822122053b564cda3b55c4dab6f8fd7a75d0edd1f630bb974c3ca3851f50361eca5266e64736f6c634300081b0033",
  "linkReferences": {},
  "deployedLinkReferences": {}
}